:020000040800F2
:1000000000000220A54A0008494400084B440008AB
:100010004D4400084F44000851440008000000000F
:100020000000000000000000000000005344000831
:1000300055440008000000005744000859440008D7
:10004000F54A0008F54A0008F54A0008F54A000894
:10005000F54A0008F54A0008F54A0008F54A000884
:10006000F54A0008F54A0008F54A0008F54A000874
:10007000F54A0008F54A0008F54A0008F54A000864
:10008000F54A0008F54A0008F54A0008F54A000854
:10009000F54A0008F54A0008F54A0008F54A000844
:1000A000F54A0008F54A0008F54A0008F54A000834
:1000B00061440008F54A0008F54A0008F54A0008BE
:1000C000F54A0008F54A0008F54A0008F54A000814
:1000D000F54A0008F54A0008F54A0008F54A000804
:1000E000053A0008F54A0008F54A0008F54A0008F4
:1000F000F54A0008F54A0008F54A0008F54A0008E4
:10010000F54A0008F54A0008F54A0008F54A0008D3
:10011000F54A0008F54A0008F54A0008F54A0008C3
:10012000F54A0008F54A0008F54A0008F54A0008B3
:10013000F54A00080000000000000000F54A000831
:10014000F54A0008F54A0008F54A0008F54A000893
:10015000F54A0008F54A0008F54A0008F54A000883
:10016000F54A0008F54A0008F54A0008F54A000873
:10017000F54A0008F54A0008F54A000800000000AA
:1001800000000000F54A0008000000000000000028
:10019000F54A00080000000000000000F54A0008D1
:1001A000000000000000000000000000F54A000808
:1001B000F54A0008F54A0008F54A0008F54A000823
:0401C000F54A0008F4
:1002000010B5054C237833B9044B13B10448AFF350
:1002100000800123237010BDC809002000000000E9
:1002200004A3000808B5034B1BB103490348AFF30F
:10023000008008BD00000000CC09002004A30008D5
:1002400081F0004102E000BF83F0004330B54FEA87
:1002500041044FEA430594EA050F08BF90EA020FF4
:100260001FBF54EA000C55EA020C7FEA645C7FEA87
:10027000655C00F0E2804FEA5454D4EB5555B8BFAA
:100280006D420CDD2C4480EA020281EA030382EA1B
:10029000000083EA010180EA020281EA0303362DAD
:1002A00088BF30BD11F0004F4FEA01314FF4801C80
:1002B0004CEA113102D0404261EB410113F0004F92
:1002C0004FEA03334CEA133302D0524263EB430349
:1002D00094EA050F00F0A780A4F10104D5F1200EE7
:1002E0000DDB02FA0EFC22FA05F2801841F1000142
:1002F00003FA0EF2801843FA05F359410EE0A5F116
:1003000020050EF1200E012A03FA0EFC28BF4CF046
:10031000020C43FA05F3C01851EBE37101F00045FC
:1003200007D54FF0000EDCF1000C7EEB00006EEB09
:100330000101B1F5801F1BD3B1F5001F0CD3490893
:100340005FEA30004FEA3C0C04F101044FEA4452EA
:1003500012F5800F80F09A80BCF1004F08BF5FEA71
:10036000500C50F1000041EB045141EA050130BD51
:100370005FEA4C0C404141EB010111F4801FA4F1F4
:100380000104E9D191F0000F04BF01460020B1FA49
:1003900081F308BF2033A3F10B03B3F120020CDA81
:1003A0000C3208DD02F1140CC2F10C0201FA0CF05F
:1003B00021FA02F10CE002F11402D8BFC2F1200CC4
:1003C00001FA02F120FA0CFCDCBF41EA0C0190407A
:1003D000E41AA2BF01EB0451294330BD6FEA0404C3
:1003E0001F3C1CDA0C340EDC04F11404C4F12002AE
:1003F00020FA04F001FA02F340EA030021FA04F3C0
:1004000045EA030130BDC4F10C04C4F1200220FA16
:1004100002F001FA04F340EA0300294630BD21FA54
:1004200004F0294630BD94F0000F83F4801306BF1A
:1004300081F480110134013D4EE77FEA645C18BF0E
:100440007FEA655C29D094EA050F08BF90EA020FA5
:1004500005D054EA000C04BF1946104630BD91EA9D
:10046000030F1EBF0021002030BD5FEA545C05D1A0
:100470004000494128BF41F0004130BD14F58004DF
:100480003CBF01F5801130BD01F0004545F0FE4153
:1004900041F470014FF0000030BD7FEA645C1ABF88
:1004A000194610467FEA655C1CBF0B46024650EABF
:1004B000013406BF52EA033591EA030F41F40021EB
:1004C00030BD00BF90F0000F04BF0021704730B571
:1004D0004FF4806404F132044FF000054FF0000146
:1004E00050E700BF90F0000F04BF0021704730B507
:1004F0004FF4806404F1320410F0004548BF4042DC
:100500004FF000013EE700BF42004FEAE2014FEA30
:1005100031014FEA02701FBF12F07F4393F07F4F0B
:1005200081F06051704732F07F4208BF704793F00E
:100530007F4F04BF41F40021704730B54FF4607421
:1005400001F0004521F000411CE700BF50EA010224
:1005500008BF704730B54FF000050AE050EA0102CD
:1005600008BF704730B511F0004502D5404261EB3D
:1005700041014FF4806404F132045FEA915C3FF47E
:10058000D8AE4FF003025FEADC0C18BF03325FEA1B
:10059000DC0C18BF033202EBDC02C2F1200300FACC
:1005A00003FC20FA02F001FA03FE40EA0E0021FAF1
:1005B00002F11444BDE600BF70B54FF0FF0C4CF4DF
:1005C000E06C1CEA11541DBF1CEA135594EA0C0F91
:1005D00095EA0C0F00F0DEF82C4481EA030621EACC
:1005E0004C5123EA4C5350EA013518BF52EA033507
:1005F00041F4801143F4801338D0A0FB02CE4FF0B9
:100600000005E1FB02E506F00042E0FB03E54FF0E8
:100610000006E1FB03569CF0000F18BF4EF0010EE0
:10062000A4F1FF04B6F5007F64F5407404D25FEADC
:100630004E0E6D4146EB060642EAC62141EA55518F
:100640004FEAC52040EA5E504FEACE2EB4F1FD0CD1
:1006500088BFBCF5E06F1ED8BEF1004F08BF5FEA4F
:10066000500E50F1000041EB045170BD06F0004601
:1006700046EA010140EA020081EA0301B4EB5C04AE
:10068000C2BFD4EB0C0541EA045170BD41F48011A6
:100690004FF0000E013C00F3AB8014F1360FDEBFCB
:1006A000002001F0004170BDC4F10004203C35DAA7
:1006B0000C341BDC04F11404C4F1200500FA05F32A
:1006C00020FA04F001FA05F240EA020001F00042CB
:1006D00021F0004110EBD37021FA04F642EB060141
:1006E0005EEA430E08BF20EAD37070BDC4F10C046B
:1006F000C4F1200500FA04F320FA05F001FA04F22F
:1007000040EA020001F0004110EBD37041F100011A
:100710005EEA430E08BF20EAD37070BDC4F1200525
:1007200000FA05F24EEA020E20FA04F301FA05F28D
:1007300043EA020321FA04F001F0004121FA04F235
:1007400020EA020000EBD3705EEA430E08BF20EA05
:10075000D37070BD94F0000F0FD101F0004640003F
:1007600041EB010111F4801F08BF013CF7D041EAC1
:10077000060195F0000F18BF704703F000465200C5
:1007800043EB030313F4801F08BF013DF7D043EA96
:100790000603704794EA0C0F0CEA135518BF95EA4C
:1007A0000C0F0CD050EA410618BF52EA4306D1D1D3
:1007B00081EA030101F000414FF0000070BD50EAF2
:1007C000410606BF1046194652EA430619D094EA7C
:1007D0000C0F02D150EA013613D195EA0C0F05D166
:1007E00052EA03361CBF104619460AD181EA0301BA
:1007F00001F0004141F0FE4141F470014FF0000072
:1008000070BD41F0FE4141F4780170BD70B54FF00C
:10081000FF0C4CF4E06C1CEA11541DBF1CEA13558C
:1008200094EA0C0F95EA0C0F00F0A7F8A4EB05046E
:1008300081EA030E52EA03354FEA013100F0888065
:100840004FEA03334FF0805545EA131343EA12632E
:100850004FEA022245EA111545EA10654FEA0026E3
:100860000EF000419D4208BF964244F1FD0404F59C
:10087000407402D25B084FEA3202B61A65EB0305F8
:100880005B084FEA32024FF480104FF4002CB6EBB5
:10089000020E75EB030E22BFB61A754640EA0C0035
:1008A0005B084FEA3202B6EB020E75EB030E22BF75
:1008B000B61A754640EA5C005B084FEA3202B6EBB6
:1008C000020E75EB030E22BFB61A754640EA9C0075
:1008D0005B084FEA3202B6EB020E75EB030E22BF45
:1008E000B61A754640EADC0055EA060E18D04FEA03
:1008F000051545EA16754FEA06164FEAC30343EAA3
:1009000052734FEAC2025FEA1C1CC0D111F4801F6F
:100910000BD141EA00014FF000004FF0004CB6E768
:1009200011F4801F04BF01430020B4F1FD0C88BF07
:10093000BCF5E06F3FF6AFAEB5EB030C04BFB6EB12
:10094000020C5FEA500C50F1000041EB045170BD05
:100950000EF0004E4EEA113114EB5C04C2BFD4EB32
:100960000C0541EA045170BD41F480114FF0000EB6
:10097000013C90E645EA060E8DE60CEA135594EA32
:100980000C0F08BF95EA0C0F3FF43BAF94EA0C0F35
:100990000AD150EA01347FF434AF95EA0C0F7FF4AA
:1009A00025AF104619462CE795EA0C0F06D152EAFE
:1009B00003353FF4FDAE1046194622E750EA4106E2
:1009C00018BF52EA43067FF4C5AE50EA41047FF4F3
:1009D0000DAF52EA43057FF4EBAE12E74FEA410256
:1009E000B2F1E04324BFB3F5001CDCF1FE5C0DD98D
:1009F00001F0004C4FEAC0024CEA5070B2F1004FD7
:100A000040EB830008BF20F00100704711F0804FD9
:100A100021D113F13872BCBF01F00040704741F49E
:100A200080114FEA5252C2F11802C2F1200C10FAA2
:100A30000CF320FA02F018BF40F001004FEAC12386
:100A40004FEAD32303FA0CFC40EA0C0023FA02F32A
:100A50004FEA4303CCE77FEA625307D150EA013300
:100A60001EBF4FF0FE4040F44000704701F00040D0
:100A700040F0FE4040F40000704700BF53B94AB94F
:100A8000002908BF00281CBF4FF0FF314FF0FF3096
:100A900000F072B9ADF1080C6DE904CE00F006F873
:100AA000DDF804E0DDE9022304B070472DE9F047EA
:100AB000089E04468846002B4BD18A42154667D9CA
:100AC000B2FA82F24AB1C2F1200701FA02F320FA27
:100AD00007F7954047EA030894404FEA154E230C68
:100AE000B8FBFEF71FFA85FC0EFB178843EA0843A4
:100AF00007FB0CF1994209D9EB1807F1FF3080F0A0
:100B00001B81994240F21881023F2B445B1AA4B228
:100B1000B3FBFEF00EFB103344EA034400FB0CFC75
:100B2000A44509D92C1900F1FF3380F00781A445B1
:100B300040F2048102382C4440EA0740A4EB0C0444
:100B400000271EB1D4400023C6E900433946BDE862
:100B5000F0878B4209D9002E00F0EB800027C6E910
:100B6000000138463946BDE8F087B3FA83F7002F15
:100B700047D18B4202D3824200F2FA80841A61EBA1
:100B8000030301209846002EE0D0C6E90048DDE7C7
:100B900002B9FFDEB2FA82F2002A40F08F80491BD0
:100BA0004FEA154E1FFA85F80127B1FBFEFC230C16
:100BB0000EFB1C1143EA014308FB0CF1994207D9D3
:100BC000EB180CF1FF3002D2994200F2CD8084463E
:100BD000591AA3B2B1FBFEF00EFB101443EA044411
:100BE00008FB00F8A04507D92C1900F1FF3302D209
:100BF000A04500F2B6801846A4EB080440EA0C4079
:100C00009FE7C7F1200CBB4022FA0CFE4EEA030E10
:100C100001FA07F420FA0CF521FA0CF34FEA1E480A
:100C20002543B3FBF8F92C0C08FB19331FFA8EFA95
:100C300044EA034309FB0AF49C4202FA07F200FA71
:100C400007F10BD91EEB030309F1FF3080F0878019
:100C50009C4240F28480A9F1020973441B1BADB28F
:100C6000B3FBF8F008FB103345EA034400FB0AFA33
:100C7000A24508D91EEB040400F1FF336BD2A24554
:100C800069D90238744440EA0940A0FB0289A4EB08
:100C90000A044C45C2464B4654D351D0002E69D06D
:100CA000B1EB0A0564EB030404FA0CFCFD40FC40C4
:100CB0004CEA0505C6E90054002747E7C2F12003C6
:100CC00020FA03F7954001FA02F021FA03F34FEA04
:100CD000154E3843010CB3FBFEF71FFA85F80EFBE7
:100CE000173341EA034107FB08F38B4204FA02F48D
:100CF00007D9691807F1FF3C2FD28B422DD9023F4B
:100D00002944CB1A81B2B3FBFEF00EFB103341EA4B
:100D1000034100FB08F38B4207D9691800F1FF3C3F
:100D200017D28B4215D902382944C91A40EA07471D
:100D30003BE73746304609E70746E7E61846FBE655
:100D40004145ABD2B8EB020A69EB0E0201381346FB
:100D5000A4E76046E9E7184695E76746D1E781468C
:100D60007CE702382C4447E7ACF1020C2B442FE718
:100D7000384608E73746E9E6704700BF0000000044
:100D800090F800F06DE9024520F007016FF0000CCB
:100D900010F0070491F820F040F049804FF0000473
:100DA0006FF00700D1E9002391F840F000F108004E
:100DB00082FA4CF2A4FA8CF283FA4CF3A2FA8CF386
:100DC0004BBBD1E9022382FA4CF200F10800A4FAED
:100DD0008CF283FA4CF3A2FA8CF3E3B9D1E9042341
:100DE00082FA4CF200F10800A4FA8CF283FA4CF378
:100DF000A2FA8CF37BB9D1E9062301F1200182FA32
:100E00004CF200F10800A4FA8CF283FA4CF3A2FA37
:100E10008CF3002BC6D0002A04BF04301A4612BA45
:100E2000B2FA82F2FDE8024500EBD2007047D1E948
:100E3000002304F00305C4F100004FEAC50514F0D7
:100E4000040F91F840F00CFA05F562EA05021CBFA8
:100E500063EA050362464FF00004A9E700000000C2
:100E600001F0FF01102A2BDB10F0070F08D010F85B
:100E7000013B013A8B422DD010F0070F42B3F6D15F
:100E8000F0B441EA012141EA014122F007047FF078
:100E900000070023F0E80256083C85EA010586EACF
:100EA000010685FA47F5A3FA87F586FA47F6A5FA0B
:100EB00087F68EB9EED1F0BC01F0FF0102F0070217
:100EC00032B110F8013B013A83EA010313B1F8D1C2
:100ED0000020704701387047002D06BF35460338A3
:100EE000073815F0010F07D1013015F4807F02BFDC
:100EF000013015F4C03F0130F0BC0138704700BF2D
:100F0000844641EA000313F003036DD1403A41D314
:100F100051F8043B40F8043B51F8043B40F8043BD3
:100F200051F8043B40F8043B51F8043B40F8043BC3
:100F300051F8043B40F8043B51F8043B40F8043BB3
:100F400051F8043B40F8043B51F8043B40F8043BA3
:100F500051F8043B40F8043B51F8043B40F8043B93
:100F600051F8043B40F8043B51F8043B40F8043B83
:100F700051F8043B40F8043B51F8043B40F8043B73
:100F800051F8043B40F8043B51F8043B40F8043B63
:100F9000403ABDD2303211D351F8043B40F8043B03
:100FA00051F8043B40F8043B51F8043B40F8043B43
:100FB00051F8043B40F8043B103AEDD20C3205D313
:100FC00051F8043B40F8043B043AF9D2043208D00B
:100FD000D2071CBF11F8013B00F8013B01D30B887D
:100FE00003806046704700BF082A13D38B078DD05B
:100FF00010F003038AD0C3F10403D21ADB071CBF2D
:1010000011F8013B00F8013B80D331F8023B20F896
:10101000023B7BE7043AD9D3013A11F8013B00F8CF
:10102000013BF9D20B7803704B7843708B78837057
:10103000604670474FF0FF3C06E000BF4FF0010CE8
:1010400002E000BF4FF0010C4DF804CD4FEA410C17
:101050007FEA6C5C4FEA430C18BF7FEA6C5C1BD0E4
:1010600001B050EA410C0CBF52EA430C91EA030F65
:1010700002BF90EA020F0020704710F1000F91EAC2
:10108000030F58BF994208BF90422CBFD8176FEA90
:10109000E37040F0010070474FEA410C7FEA6C5C5E
:1010A00002D150EA013C07D14FEA430C7FEA6C5C65
:1010B000D6D152EA033CD3D05DF8040B704700BF91
:1010C0008446104662468C461946634600E000BFDF
:1010D00001B5FFF7B7FF002848BF10F1000F01BDB1
:1010E0004DF808EDFFF7F4FF0CBF012000205DF87C
:1010F00008FB00BF4DF808EDFFF7EAFF34BF012001
:1011000000205DF808FB00BF4DF808EDFFF7E0FF99
:1011100094BF012000205DF808FB00BF4DF808EDEA
:10112000FFF7CEFF94BF012000205DF808FB00BF51
:101130004DF808EDFFF7C4FF34BF012000205DF833
:1011400008FB00BF4FEA410C7FEA6C5C02D150EA19
:10115000013C0AD14FEA430C7FEA6C5C02D152EAAF
:10116000033C02D14FF0000070474FF00100704780
:101170004FEA410212F5001215D211D56FF47873BF
:10118000B3EB625212D94FEAC12343F0004343EA62
:10119000505311F0004F23FA02F018BF404270473D
:1011A0004FF00000704750EA013005D111F00040C7
:1011B00008BF6FF0004070474FF00000704700BF5D
:1011C00010B504460E4B18784FF47A73B3FBF0F366
:1011D0000C4A1068B0FBF3F000F01AFB68B90F2C52
:1011E00001D901200AE0002221464FF0FF3000F033
:1011F000C3FA034B5C60002000E0012010BD00BF7B
:10120000000000201000002008B50B4B1A6842F4C3
:1012100000721A601A6842F480621A601A6842F416
:1012200080721A60032000F095FA0020FFF7C8FFD3
:1012300002F0CAFF002008BD003C0240034A1168CA
:10124000034B1B780B441360704700BF000B00205A
:1012500000000020014B1868704700BF000B002001
:1012600038B50446FFF7F6FF0546B4F1FF3F02D05C
:10127000044B1B781C44FFF7EDFF401BA042FAD340
:1012800038BD00BF00000020494B5A6822F44032AC
:101290005A605A6841680A435A600268536823F4E6
:1012A0008073536002685368016943EA0123536005
:1012B0000268536823F04073536002685368816882
:1012C0000B4353600268936823F4006393600268E1
:1012D0009368C1680B439360826A364B9A4249D047
:1012E0000268936823F07063936002689368816A70
:1012F0000B4393600268936823F040539360026845
:101300009368C16A0B4393600268936823F00203F9
:10131000936002689368816943EA41039360036ABA
:10132000002B32D10268536823F4006353600268D3
:10133000D36A23F47003D3620168CB6AC269013AAD
:1013400043EA0253CB620268936823F4007393600C
:1013500002689368016B43EA4123936002689368D3
:1013600023F48063936002689368416943EA8123B0
:10137000936070470268936823F07063936002681B
:10138000936823F040539360BEE70268536843F4C8
:10139000006353600268536823F46043536001683C
:1013A0004B68426A013A43EA42334B60BFE700BFF1
:1013B000002301400100000F30B310B50446036C58
:1013C00043B1236C13F0100F0AD00120002384F8DE
:1013D0003C3010BD436480F83C3002F011FFF0E770
:1013E000236C23F4885323F0020343F002032364A5
:1013F0002046FFF749FF00206064236C23F00303BD
:1014000043F001032364E1E70120704782B0002329
:10141000019390F83C30012B63D0012380F83C30DD
:1014200003689A6812F0010F13D19A6842F0010222
:101430009A60304B1B68304AA2FB03239B0C03EBE2
:101440004303019302E0019B013B0193019B002BAD
:10145000F9D10268936813F0010F44D0036C23F4B0
:10146000E06323F0010343F480730364536813F4CF
:10147000806F05D0036C23F4405343F4805303641E
:10148000036C13F4805F19D0436C23F006034364AC
:10149000002380F83C306FF022031360174B5B6829
:1014A00013F01F0F0DD103689A6812F0405F1DD131
:1014B0009A6842F080429A60002015E0002343645D
:1014C000E6E703680E4A934201D000200CE09A68D8
:1014D00012F0405F0CD19A6842F080429A6000207E
:1014E00002E0022000E0002002B070470020FBE78D
:1014F0000020F9E71000002083DE1B430023014099
:101500000020014003689A6812F4806F03D09B6842
:1015100013F4807F1CD170B50D460446FFF79AFE88
:10152000064623681A6812F0020F1AD1B5F1FF3F80
:10153000F7D025B1FFF78EFE801BA842F1D9236CAE
:1015400043F004032364002384F83C3003202DE09F
:10155000036C43F020030364002380F83C30012037
:1015600070476FF012021A60236C43F40073236417
:1015700023689A6812F0405F17D1A269BAB9DA6A93
:1015800012F4700F03D09B6813F4806F11D1236C99
:1015900023F480732364236C13F4805F0BD1236CDA
:1015A00043F001032364002000E0002070BD002010
:1015B000FCE70020FAE70020F8E70368D86C7047E2
:1015C00030B482B00023019390F83C30012B00F03E
:1015D000B580012380F83C300B68092B3ED90568A3
:1015E000EA689BB203EB43031E3B072404FA03F3B0
:1015F00022EA0303EB600568EA688C680B8803EB5A
:1016000043031E3B04FA03F31343EB604B68062BC2
:101610003AD805686A6B03EB8303053B1F2404FA81
:1016200003F322EA03036B6305686A6B4B6803EB01
:101630008303053B0C8804FA03F313436B630268CE
:101640003F4B9A4250D002683D4B9A4255D00023FE
:1016500080F83C30184602B030BC704705682A69F3
:101660009BB203EB4303072404FA03F322EA0303C8
:101670002B6105682A698C680B8803EB430304FA25
:1016800003F313432B61C1E70C2B16D805682A6BB3
:1016900003EB8303233B1F2404FA03F322EA03032F
:1016A0002B6305682A6B4B6803EB8303233B0C8891
:1016B00004FA03F313432B63C1E70568EA6A03EBFB
:1016C0008303413B1F2404FA03F322EA0303EB6282
:1016D0000568EA6A4B6803EB8303413B0C8804FA14
:1016E00003F31343EB62AAE70B68122BABD1154A45
:1016F000536843F480035360A5E70B68124A934292
:1017000001D0112BA3D10F4A536843F40003536057
:101710000A680D4B9A429AD10C4B1B680C4AA2FBEB
:1017200003239B0C03EB83035A00019202E0019B0D
:10173000013B0193019B002BF9D188E702208AE746
:101740000020014000230140120000101000002082
:1017500083DE1B43074AD36823F4E0631B041B0C9E
:10176000000200F4E060184340F0BF6040F4003035
:10177000D060704700ED00E030B4174BDB68C3F376
:101780000223C3F10704042C28BF04241D1D062DC9
:1017900018D9033B4FF0FF3505FA04F421EA0401A0
:1017A000994005FA03F322EA0303194300280BDBEF
:1017B0000901C9B200F1604000F5614080F80013F2
:1017C00030BC70470023E5E700F00F000901C9B203
:1017D000024B1954F4E700BF00ED00E014ED00E007
:1017E00000F01F02400901239340024A42F82030D2
:1017F000704700BF00E100E000F01F024009012334
:1018000093402030014A42F82030704700E100E068
:101810000138B0F1807F0AD2064B5860064AF021A9
:1018200082F823100020986007221A607047012078
:10183000704700BF10E000E000ED00E000230F2B38
:1018400000F2D180F0B482B039E0062200E000223C
:10185000B2403A430234644E46F82420634A146886
:10186000EA4302EA04064F6817F4803F01D045EAD4
:1018700004065E4C2660646802EA04064F6817F4AA
:10188000003F01D045EA0406584C6660A46802EAAD
:1018900004064F6817F4801F01D045EA0406534C34
:1018A000A660E46822404E6816F4001F01D045EAA5
:1018B00004024E4CE26001330F2B00F291800122B2
:1018C0009A400C6804EA0205AA42F4D14C68022C42
:1018D00001D0122C10D1DE08083650F826C003F0D3
:1018E0000704A7000F24BC402CEA040C0C69BC4080
:1018F00044EA0C0440F8264004685F000326BE401A
:10190000F64306EA040C4C6804F00304BC4044EAC5
:101910000C0404604C6804F1FF3CBCF1010F03D9D6
:10192000112C01D0122C10D1846806EA040CCC686A
:10193000BC4044EA0C048460446824EA02024C6817
:10194000C4F300149C4014434460C26816408A6883
:10195000BA403243C2604A6812F0805FABD00022C6
:101960000192234A546C44F480445464526C02F44F
:1019700080420192019A9C08A61C1B4A52F82670CC
:1019800003F0030296000F22B24027EA0207194A29
:1019900090423FF45CAF02F58062904216D002F5AF
:1019A0008062904214D002F58062904212D002F51B
:1019B0008062904210D002F5806290420ED002F513
:1019C000806290423FF441AF072241E701223FE7A6
:1019D00002223DE703223BE7042239E7052237E7ED
:1019E00002B0F0BC7047704700380140003C014035
:1019F000003802400000024012B9090481617047BA
:101A000081617047436959404161704708B5054B92
:101A10005B69034200D108BD024B586101F0E6FF4B
:101A2000F9E700BF003C014003685A6912F4806F77
:101A30000DD06FF480625A610423036400230363B2
:101A4000202280F83D2080F83C30012070470020A3
:101A50007047F8B506460C4617461D461EE02DB1E8
:101A6000FFF7F8FB069BC01AA84217D9002333637F
:101A7000202286F83D2086F83E3086F83C30032050
:101A80001AE033685B6924EA03039BB2B3FA83F379
:101A90005B099F420FD1B5F1FF3FE0D1C4F307438B
:101AA000012BEED033689B6924EA03039BB2B3FA9F
:101AB00083F35B09EDE70020F8BDF8B504460D4659
:101AC00016461F4632E01A6842F400721A60236814
:101AD0006FF480625A61042323640023236320226D
:101AE00084F83D2084F83C3001202DE026B1FFF73A
:101AF000B1FBC01BB04219D900232363202284F814
:101B00003D2084F83C3003201EE023685B6925EA11
:101B100003039BB2003318BF0123A3B123685A69A2
:101B200012F4806FCFD1B6F1FF3FDFD1C5F3074389
:101B3000012BEAD023689B6925EA03039BB200339B
:101B400018BF0123E9E70020F8BD70B504460D4633
:101B5000164623685B6913F0800F19D12046FFF702
:101B600063FFB8B9B5F1FF3FF3D025B1FFF772FBC2
:101B7000801BA842EDD9236C43F02003236400238B
:101B80002363202284F83D2084F83C30032000E0C9
:101B9000002070BD0120FCE72DE9F04184B004462F
:101BA0000E46174698460B9D0268136843F48063FF
:101BB00013600268136843F48073136000950A9BF6
:101BC00000224FF00111FFF744FF002874D1F6B254
:101BD000236806F0FE021A612B460A9A3F49204606
:101BE000FFF76BFF20B1236C042B6AD1012364E063
:101BF0000023039323685A6903929B690393039B11
:101C00002A460A992046FFF7A0FF48B1236C042B0F
:101C100059D12268136843F40073136001234CE028
:101C2000B8F1010F12D12368FFB21F612A460A9949
:101C30002046FFF78AFF00B3236C042B47D12268AC
:101C4000136843F400731360012336E023683A0AF3
:101C50001A612A460A992046FFF777FF48B1236C9C
:101C6000042B32D12268136843F4007313600123FC
:101C700023E02368FFB21F61D8E72268136843F4AA
:101C80008073136000950A9B00224FF001112046DB
:101C9000FFF7DFFEE8B9236846F001061E612B4618
:101CA0000A9A0E492046FFF708FF034628B1236C25
:101CB000042B10D1012300E00323184604B0BDE833
:101CC000F0810323F9E70323F7E70323F5E7032371
:101CD000F3E70323F1E70323EFE700BF020001006E
:101CE00070B505460C4616462B685A6912F0400F2F
:101CF00022D15A6912F0100F11D124B1FFF7AAFABC
:101D0000801BA042F0D92B6C43F020032B642023CE
:101D100085F83D30002385F83C30032070BD6FF01E
:101D200010025A6100232B642B63202285F83D208A
:101D300085F83C300120F1E70020EFE7002800F0B3
:101D4000828010B5044690F83D30002B41D024230A
:101D500084F83D302268136823F00103136000F01B
:101D6000A1FA3A4BA3FB00239B0C226853606168E5
:101D7000374A914232D80133226813626368344A89
:101D8000934235D85B00B0FBF3F0C0F30B03032B99
:101D900000D804202368D861E369216A22680B43D4
:101DA00013602369E16822680B4393606369A1694A
:101DB00022680B43D3602268136843F00103136069
:101DC00000202064202384F83D30206384F83E0006
:101DD00010BD80F83C3002F047FAB8E74FF4967235
:101DE00002FB03F31B4AA2FB03239B090133C3E756
:101DF000A16889B903EB4302B0FBF2F2C2F30B0214
:101E0000B2FA82F25209E2B991B903EB4303B0FB93
:101E1000F3F040F40040BDE703EB830202EB8202E3
:101E2000B0FBF2F2C2F30B02B2FA82F25209EAE715
:101E300003EB830303EB8303B0FBF3F040F4404078
:101E4000A8E70120A6E70120704700BF83DE1B43FF
:101E5000A0860100D34D62102DE9F04186B0044602
:101E60000E4617469846FFF7F5F994F83D30DBB279
:101E7000202B04D00226304606B0BDE8F08105468E
:101E80000090192301228B492046FFF7E2FD00282C
:101E900040F04B8194F83C30012B00F04881012345
:101EA00084F83C3023681A6812F0010F03D11A68D5
:101EB00042F001021A602268136823F40063136081
:101EC000222384F83D30402384F83E3000232364ED
:101ED0000C9B6362BDF834306385774BE362638D9E
:101EE000238501950E9B009343463A463146204692
:101EF000FFF752FE064660B1236C042B04D1002389
:101F000084F83C300126B6E7002384F83C300326F1
:101F1000B1E7238D5BB9029323685A6902929A69EB
:101F20000292029A1A6842F400721A6075E0012B5C
:101F30000AD0022B1AD00023059323685A69059210
:101F40009B690593059B68E02268136823F480630E
:101F500013600023039323685A6903929A690392DA
:101F6000039A1A6842F400721A6056E022681368F5
:101F700023F4806313602268136843F400631360E2
:101F80000023049323685A6904929B690493049B79
:101F900043E02A460E992046FFF7A2FE68B923685F
:101FA0001A69636A591C61621A70238D013B23858B
:101FB000638D013B9BB263852FE0236C202B01D006
:101FC000012658E7032656E700950E9B00223B4961
:101FD0002046FFF73EFD002840F0AB8022681368E2
:101FE00043F40073136023681A69636A591C6162C1
:101FF0001A70238D013B2385638D013B9BB2638562
:1020000023681A69636A591C61621A70238D013B47
:102010002385638D013B9BB26385238D002B7BD091
:10202000032B4DD8012BB4D0022BCDD000950E9BA5
:10203000002222492046FFF70CFD00287BD12268B0
:10204000136823F48063136023681A69636A591C58
:1020500061621A70238D013B2385638D013B9BB226
:10206000638500950E9B002214492046FFF7F1FC82
:10207000002862D12268136843F400731360236858
:102080001A69636A591C61621A70238D013B2385AA
:10209000638D013B9BB2638523681A69636A591C8F
:1020A00061621A70238D013B2385638D013B9BB2D6
:1020B0006385B2E7020010000000FFFF040001008A
:1020C0002A460E992046FFF70BFEF0B923681A69DD
:1020D000636A591C61621A70238D013B2385638DED
:1020E000013B9BB2638523685A6912F0040F94D0B8
:1020F0001A69636A591C61621A70238D013B23853A
:10210000638D013B9BB2638587E7236C202B01D055
:102110000126B0E60326AEE6202384F83D300023F6
:1021200084F83E3084F83C30A5E60226A3E6022679
:10213000A1E603269FE603269DE603269BE600BF55
:10214000002800F09D8070B504464F4B1B6803F0DB
:102150000F038B4209D2CBB24B4A1370136803F0C2
:102160000F038B4201D0012070BD236813F0020FD2
:1021700017D013F0040F04D0444A936843F4E0539B
:102180009360236813F0080F04D0404A936843F427
:10219000604393603D4A936823F0F003A0680343D3
:1021A00093600D46236813F0010F32D06368012B52
:1021B00021D09A1E012A25D9344A126812F0020F42
:1021C00060D032498A6822F0030213438B60FFF724
:1021D00041F806462D4B9B6803F00C036268B3EB95
:1021E000820F16D0FFF736F8801B41F288339842F1
:1021F000F0D90320B8E7254A126812F4003FE0D175
:102200000120B1E7214A126812F0007FD9D10120E4
:10221000AAE71D4B1B6803F00F03AB4209D9EAB2D2
:10222000194B1A701B6803F00F03AB4201D0012059
:102230009AE7236813F0040F06D0144A936823F436
:10224000E053E1680B439360236813F0080F07D055
:102250000E4A936823F46043216943EAC103936003
:1022600000F040F8094B9B68C3F30313084AD35CA2
:10227000D840084B18600020FEF7A2FF002073E74B
:102280000120704701206FE7003C02400038024007
:1022900074A3000810000020014B1868704700BFAD
:1022A0001000002008B5FFF7F7FF044B9B68C3F34D
:1022B0008223034AD35CD84008BD00BF00380240E7
:1022C00084A3000808B5FFF7E7FF044B9B68C3F33E
:1022D0004233034AD35CD84008BD00BF00380240F7
:1022E00084A300082DE9F04B444B9B6803F00C03DA
:1022F000082B06D00C2B42D0042B7CD04048BDE8E4
:10230000F08B3E4B5A6802F03F025B6813F4800F7B
:1023100012D03A4B5968C1F3881100233948A1FB08
:102320000001FEF7ABFB354B5B68C3F301430133A0
:102330005B00B0FBF3F0E2E7304B5B68C3F388135C
:102340001E4600275C010025E41A65EB0705A9017C
:1023500041EA9461A001001B61EB0501CB0043EA57
:102360005073C400A01943EB07018B0243EA90535A
:102370008402204619460023FEF780FBD3E71F4B5B
:102380005A6802F03F025B6813F4800F10D01B4BB9
:102390005968C1F3881100231A48A1FB0001FEF718
:1023A0006DFB164B5B68C3F30273B0FBF3F0A6E75B
:1023B000124B5B68C3F388131E4600275C0100259F
:1023C000E41A65EB0705A90141EA9461A001001B2D
:1023D00061EB0501CB0043EA5073C400A01943EB45
:1023E00007018B0243EA90538402204619460023DA
:1023F000FEF744FBD5E7034881E700BF0038024001
:102400000024F40040787D0170B582B00446036872
:1024100013F0010F41D0A64B9B6803F00C03042B73
:1024200032D0A34B9B6803F00C03082B27D0A04BA2
:102430009B6803F00C030C2B59D06368B3F5803F05
:102440005BD0B3F5A02F5ED0994B1A6822F480328E
:102450001A601A6822F480221A606368002B5CD02C
:10246000FEF7F8FE0546924B1B6813F4003F14D1AB
:10247000FEF7F0FE401B6428F5D903209DE18C4B4C
:102480005B6813F4800FD2D0894B1B6813F4003FB4
:1024900003D06368002B00F08D81236813F0020FD6
:1024A00067D0834B9B6813F00C0F4AD0804B9B681E
:1024B00003F00C03082B3FD07D4B9B6803F00C030B
:1024C0000C2B48D0E368002B74D07A4B01221A60A1
:1024D000FEF7C0FE0546764B1B6813F0020F60D175
:1024E000FEF7B8FE401B0228F5D9032065E1704BCA
:1024F0005B6813F4800FA0D0C6E76D4A136843F4FD
:1025000080331360A9E76A4B1A6842F480221A608C
:102510001A6842F480321A609FE7FEF79BFE054678
:10252000634B1B6813F4003FB7D0FEF793FE401BCC
:102530006428F5D9032040E15D4B5B6813F4800FFC
:10254000BAD15B4B1B6813F0020F0AD0E368012B72
:1025500007D0012031E1564B5B6813F4800FB1D1F5
:10256000EFE7534A136823F0F803216943EAC103F4
:102570001360236813F0080F40D0636963B34E4BB8
:1025800001221A60FEF766FE0546494B5B6F13F0A9
:10259000020F33D1FEF75EFE401B0228F5D903205F
:1025A0000BE1434A136823F0F803216943EAC103AE
:1025B0001360DEE73F4B00221A60FEF74BFE054634
:1025C0003B4B1B6813F0020FD3D0FEF743FE401BBA
:1025D0000228F5D90320F0E0374B00221A60FEF7FD
:1025E00039FE0546324B5B6F13F0020F06D0FEF743
:1025F00031FE401B0228F5D90320DEE0236813F0EA
:10260000040F79D02A4B1B6C13F0805F33D1002369
:102610000193274B1A6C42F080521A641B6C03F032
:1026200080530193019B0125244B1B6813F4807F89
:1026300023D0A368012B34D0052B41D01C4B1A6F3B
:1026400022F001021A671A6F22F004021A67A368C7
:10265000002B3FD0FEF7FEFD0646154B1B6F13F017
:10266000020F48D1FEF7F6FD801B41F288339842F5
:10267000F3D90320A1E00025D6E7104A136843F4FC
:1026800080731360FEF7E6FD06460C4B1B6813F4DF
:10269000807FCED1FEF7DEFD801B0228F5D9032016
:1026A0008BE0034A136F43F001031367CFE700BFCA
:1026B0000038024000004742800E47420070004050
:1026C000404B1A6F42F004021A671A6F42F001027F
:1026D0001A67BCE7FEF7BEFD06463A4B1B6F13F0C8
:1026E000020F08D0FEF7B6FD801B41F288339842F6
:1026F000F3D9032061E0E5B9A369002B5CD0314A2E
:10270000926802F00C02082A59D0022B17D02E4BE7
:1027100000221A60FEF79EFD04462A4B1B6813F048
:10272000007F45D0FEF796FD001B0228F5D9032057
:1027300043E0244A136C23F080531364DCE7224BFC
:1027400000221A60FEF786FD05461E4B1B6813F03B
:10275000007F06D0FEF77EFD401B0228F5D903203E
:102760002BE0E369226A1343626A43EA8213A26A96
:102770005208013A43EA0243E26A43EA0263226BE7
:1027800043EA02730F4A53600F4B01221A60FEF7AF
:1027900061FD04460B4B1B6813F0007F06D1FEF76A
:1027A00059FD001B0228F5D9032006E0002004E0B3
:1027B000002002E0012000E0002002B070BD0120F6
:1027C000FBE700BF0038024060004742F8B505460D
:1027D0000F4616461C463BE02CB1FEF73BFD069B20
:1027E000C01AA04234D32A68536823F0E003536030
:1027F0006B68B3F5827F0BD0AB6AB3F5005F14D082
:10280000012385F85130002385F85030032027E05C
:10281000AB68B3F5004F02D0B3F5806FECD12A68F6
:10282000136823F040031360E6E72A68136823F473
:1028300000531B041B0C13602A68136843F40053F5
:102840001360DDE70123B34209D0B4F1FF3FC3D1E8
:102850002B689B6837EA0303F4D00023F3E70020DA
:10286000F8BD10B582B0044600920B4600228021CC
:10287000FFF7ACFF034610B9184602B010BD636DF8
:1028800043F0200363650323F6E700283BD010B52F
:1028900004460023836290F85130002B2ED002238F
:1028A00084F851302268136823F040031360636892
:1028B000A2681343E2681343226913436269134316
:1028C000A26902F400721343E2691343226A1343BC
:1028D000A16A22680B431360638B03F00403616AEF
:1028E00022680B4353602268D36923F40063D361E9
:1028F00000206065012384F8513010BD80F850300D
:1029000001F0ECFCCBE7012070472DE9F04184B0E9
:102910001E4690F85030012B00F0C88004460D464A
:102920009046012380F85030FEF794FC074694F857
:102930005130DBB2012B0AD00223012284F851204E
:10294000002284F85020184604B0BDE8F081002D24
:1029500000F0A480B8F1000F00F0A280032384F8F7
:102960005130002363652563A4F83480A4F83680D1
:10297000A363A387E38763642364A368B3F5004F6D
:102980001BD023681A6812F0400F03D11A6842F076
:1029900040021A60E368B3F5006F14D063681BB19E
:1029A000E38E9BB2012B3ED1236815F8012B1A73DD
:1029B000E38E013B9BB2E38635E02268136843F463
:1029C00080431360DDE763681BB1E38E9BB2012B8C
:1029D0000DD1236835F8022BDA60E38E013B9BB200
:1029E000E38604E0002E5DD0B6F1FF3F0FD1E38E09
:1029F0009BB27BB323689A6812F0020FF2D035F8CD
:102A0000022BDA60E38E013B9BB2E386EFE7FEF731
:102A100021FCC01BB042EAD303238EE7002E43D033
:102A2000B6F1FF3F0FD1E38E9BB29BB123689A684A
:102A300012F0020FF2D015F8012B1A73E38E013B4E
:102A40009BB2E386EFE7FEF705FCC01BB042EAD37A
:102A5000032372E700973346012202212046FFF745
:102A6000B5FE08B1032368E73A4631462046FFF732
:102A7000F8FE034618B12023636501235DE7A268D1
:102A800032B903922268D168039192680392039A43
:102A9000626D002A3FF451AF01234EE701234CE75A
:102AA00001234AE7032348E7032346E702234AE7D3
:102AB0002DE9F04385B099460C9D90F85030012BDC
:102AC00000F0108104460F461646012380F850306E
:102AD000FEF7C0FB804694F85130DBB26268012BF0
:102AE00015D0B2F5827F0AD00223012284F851204A
:102AF000002284F85020184605B0BDE8F083A26893
:102B0000002A40F0E780042B01D00223EDE7002FDC
:102B100000F0E280002E00F0E180B9F1000F00F03B
:102B2000DF8094F85130DBB2012B2BD0002363659A
:102B3000A663A4F83E90A4F83C902763A4F83690CE
:102B4000A4F834902364636423681A6812F0400F79
:102B500003D11A6842F040021A60E368B3F5006FCF
:102B600014D063681BB1E38E9BB2012B07D123689D
:102B700017F8012B1A73E38E013B9BB2E3864FF0EB
:102B8000010961E0052384F85130CFE763681BB188
:102B9000E38E9BB2012B07D1236837F8022BDA6052
:102BA000E38E013B9BB2E3864FF0010913E0E38F14
:102BB0009BB26BB123689A6812F0010F08D0DB68F2
:102BC00026F8023BE38F013B9BB2E3874FF00109FC
:102BD000B5F1FF3F1CD1E38E9BB21BB9E38F9BB2D3
:102BE000002B55D0B9F1000FE1D0E38E9BB2002B42
:102BF000DDD023689A6812F0020FD8D037F8022B84
:102C0000DA60E38E013B9BB2E3864FF00009CEE72A
:102C1000FEF720FBA0EB0800A842DCD3032364E707
:102C2000E38F9BB26BB123689A6812F0010F08D052
:102C3000DB683370E38F013B9BB2E38701364FF0D3
:102C40000109B5F1FF3F1BD1E38E9BB213B9E38FAE
:102C50009BB2EBB1B9F1000FE2D0E38E9BB2002B37
:102C6000DED023689A6812F0020FD9D03A781A732E
:102C7000E38E013B9BB2E38601374FF00009CFE7BB
:102C8000FEF7E8FAA0EB0800A842DDD303232CE707
:102C9000CDF800802B46012202212046FFF796FD49
:102CA00008B1032321E7424629462046FFF7D9FD14
:102CB000034618B120236365012316E7A268002AA2
:102CC0007FF413AF03922268D16803919268039254
:102CD000039A0AE7022308E7012306E7012304E732
:102CE000012302E7022306E72DE9F04182B0044602
:102CF0000D4617461E464368B3F5827F19D094F8F7
:102D00005030012B00F0A280012384F85030FEF7F0
:102D1000A1FA804694F85130DBB2012B15D0022085
:102D2000012384F85130002384F8503002B0BDE80C
:102D3000F0818368002BE2D1042380F851300096A3
:102D400013460A46FFF7B4FEF0E7002D74D0002FBB
:102D500074D0042384F8513000236365A563A787EA
:102D6000E7872363A386E38623646364A368B3F5DC
:102D7000004F0BD023681A6812F0400F03D11A6875
:102D800042F040021A60E3685BB128E022681368F1
:102D900023F480431360EDE7002E51D0B6F1FF3FDE
:102DA00010D1E38F9BB2002B31D023689A6812F0C8
:102DB000010FF1D01B7B05F8013BE38F013B9BB278
:102DC000E387EEE7FEF746FAA0EB0800B042E8D34F
:102DD0000320A5E7002E35D0B6F1FF3F0FD1E38FDA
:102DE0009BB2A3B123689A6812F0010FF2D0DB689E
:102DF00025F8023BE38F013B9BB2E387EFE7FEF749
:102E000029FAA0EB0800B042E9D3032088E7636801
:102E1000B3F5827F03D0636DB3B9002080E7A36868
:102E2000B3F5004F02D0B3F5806FF4D12268136878
:102E300023F040031360EEE7012071E701206FE704
:102E400003206DE703206BE7012069E702206DE7AF
:102E500010B4036A046A24F001040462846924F053
:102E6000F00444EA021223F00A030B438261036276
:102E70005DF8044B704710B4036A23F0100303623B
:102E80008469036A24F4704444EA023223F0A00304
:102E900043EA0113826103625DF8044B7047836863
:102EA00023F0700341F0070119438160704710B4AB
:102EB000846824F47F4442EA03230B432343836062
:102EC0005DF8044B704710B50446022380F8393092
:102ED0000368196A41F21112114208D1196A40F2CD
:102EE0004442114203D11A6822F001021A602046BE
:102EF00001F05EFA002084F8390084F8380010BD33
:102F00000268D36843F00103D3600268136843F09A
:102F1000010313600020704790F83830012B7DD0FA
:102F200010B50446012380F83830022380F8393088
:102F30000268936823F47F4323F0770393600B6860
:102F4000402B57D010D9702B3ED01FD8502B47D0D4
:102F5000602B32D1CA6849680068FFF78CFF602196
:102F60002068FFF79CFF28E0102B4DD008D9202BBC
:102F70004FD0302B21D130210068FFF790FF1CE0AB
:102F8000DBB900210068FFF78AFF16E0B3F5805F28
:102F90000ED0B3F5005F10D1CB684A68896800682D
:102FA000FFF785FF2268936843F48043936004E051
:102FB0000268936823F007039360012384F8393093
:102FC000002084F8380010BDCB684A688968006822
:102FD000FFF76DFF2268936843F077039360ECE797
:102FE000CA6849680068FFF733FF50212068FFF77F
:102FF00056FFE2E7CA6849680068FFF729FF4021E9
:103000002068FFF74CFFD8E710210068FFF747FF63
:10301000D3E720210068FFF742FFCEE70220704788
:10302000704770477047704710B5044603681A69C7
:1030300012F0020F11D0DA6812F0020F0DD06FF00B
:1030400002021A610123037603689B6913F0030FE0
:1030500070D0FFF7E6FF0023237623681A6912F089
:10306000040F12D0DA6812F0040F0ED06FF00402D1
:103070001A610223237623689B6913F4407F5FD093
:103080002046FFF7CEFF0023237623681A6912F04B
:10309000080F12D0DA6812F0080F0ED06FF0080295
:1030A0001A61042323762368DB6913F0030F4ED0E3
:1030B0002046FFF7B6FF0023237623681A6912F033
:1030C000100F12D0DA6812F0100F0ED06FF010024D
:1030D0001A61082323762368DB6913F4407F3DD00F
:1030E0002046FFF79EFF0023237623681A6912F01B
:1030F000010F03D0DA6812F0010F36D123681A6984
:1031000012F0800F03D0DA6812F0800F34D12368F8
:103110001A6912F0400F03D0DA6812F0400F32D172
:1031200023681A6912F0200F03D0DA6812F0200F1A
:1031300030D110BDFFF774FF2046FFF773FF8AE719
:103140002046FFF76DFF2046FFF76CFF9BE7204608
:10315000FFF766FF2046FFF765FFACE72046FFF765
:103160005FFF2046FFF75EFFBDE76FF001021A61C7
:10317000204601F00BF8C1E76FF080021A6120468B
:1031800000F0B3F8C3E76FF040021A612046FFF782
:103190004AFFC5E76FF020021A61204600F0A4F84C
:1031A000C7E7000003682E4A904212D0B0F1804F6A
:1031B0000FD0A2F57C4290420BD002F58062904283
:1031C00007D002F58062904203D002F57842904227
:1031D00003D123F070034A681343214A90422AD056
:1031E000B0F1804F27D0A2F57C42904223D002F567
:1031F000806290421FD002F5806290421BD002F59F
:103200007842904217D002F57052904213D002F5E6
:10321000806290420FD002F5806290420BD0A2F5FE
:103220009832904207D002F58062904203D002F5B6
:103230008062904203D123F44073CA681343036051
:103240008B68C3620B688362054B984203D003F519
:103250008063984201D10B69036301234361704786
:1032600000000140A8B110B5044690F839305BB1B8
:10327000022384F83930211D2068FFF793FF0123D2
:1032800084F83930002010BD80F8383001F072F831
:10329000EEE70120704790F83830012B22D030B48F
:1032A000012280F83820022380F8393004686368EE
:1032B00023F070036360046863680D682B436360E8
:1032C0000468A36823F08003A3600468A3684968C6
:1032D0000B43A36080F83920002380F8383018466B
:1032E00030BC704702207047704770472DE9F843A3
:1032F000044601680A6922F44052C36813430B6113
:103300000168CA6822F4164222F00C028368006940
:10331000034360690343E06903431343CB602168BF
:103320004A6922F44072A36913434B61E369B3F520
:10333000004F60D02368B84A934200F0148102F530
:103340008062934200F00F81FEF7ACFF00EB80003B
:1033500000EB80006568AD00B0FBF5F5AF4FA7FB53
:1033600005356D092E01FEF79DFF00EB800000EB97
:1033700080006568AD00B0FBF5F9FEF793FF00EB48
:10338000800000EB80006568AD00B0FBF5F5A7FBA1
:1033900005356D094FF0640808FB15952D01323590
:1033A000A7FB05356D0905F0F0053544FEF77AFFFA
:1033B00000EB800000EB80006668B600B0FBF6F61C
:1033C000FEF770FF00EB800000EB800063689B005D
:1033D000B0FBF3F0A7FB0030400908FB10684FEA90
:1033E000081808F13208A7FB0837C7F3431723680A
:1033F0002F449F600DE12368874A93425BD002F51A
:103400008062934257D0FEF74DFF00EB800000EB47
:10341000800065686D00B0FBF5F5804FA7FB0535B2
:103420006D092E01FEF73EFF00EB800000EB8000EF
:1034300065686D00B0FBF5F9FEF734FF00EB800026
:1034400000EB800065686D00B0FBF5F5A7FB053566
:103450006D094FF0640808FB1595ED003235A7FBA8
:1034600005356D096D0005F4F8753544FEF71AFF52
:1034700000EB800000EB800066687600B0FBF6F69B
:10348000FEF710FF00EB800000EB800063685B003C
:10349000B0FBF3F3A7FB03235B0908FB13684FEAB8
:1034A000C80808F13208A7FB0837C7F3421723689A
:1034B0002F449F60ADE0FEF705FF00EB800000EBBE
:1034C000800065686D00B0FBF5F5544FA7FB05352E
:1034D0006D092E01FEF7F6FE00EB800000EB800088
:1034E00065686D00B0FBF5F9FEF7ECFE00EB8000BF
:1034F00000EB800065686D00B0FBF5F5A7FB0535B6
:103500006D094FF0640808FB1595ED003235A7FBF7
:1035100005356D096D0005F4F8753544FEF7D2FEEA
:1035200000EB800000EB800066687600B0FBF6F6EA
:10353000FEF7C8FE00EB800000EB800063685B00D4
:10354000B0FBF3F3A7FB03235B0908FB13684FEA07
:10355000C80808F13208A7FB0837C7F342172368E9
:103560002F449F6055E0FEF7ADFE00EB800000EBBE
:1035700080006568AD00B0FBF5F5284FA7FB053569
:103580006D092E01FEF79EFE00EB800000EB80002F
:103590006568AD00B0FBF5F9FEF794FE00EB800026
:1035A00000EB80006568AD00B0FBF5F5A7FB0535C5
:1035B0006D094FF0640808FB15952D013235A7FB06
:1035C00005356D0905F0F0053544FEF77BFE00EB8F
:1035D000800000EB80006668B600B0FBF6F6FEF7F0
:1035E00071FE00EB800000EB800063689B00B0FB85
:1035F000F3F0A7FB0030400908FB10684FEA0818F9
:1036000008F13208A7FB0837C7F3431723682F4494
:103610009F60BDE8F88300BF001001401F85EB519B
:103620002DE9F04105460F4616469846069C2B6844
:103630001B6837EA03030CBF01230023B3421DD1EB
:10364000B4F1FF3FF3D02CB1FDF704FEA0EB08006E
:10365000A042ECD92A68D36823F4D073D3602A68D7
:10366000536923F001035361202385F8393085F82D
:103670003A30002385F83830032000E00020BDE810
:10368000F08158B310B5044690F839300BB32423B9
:1036900084F839302268D36823F40053D36020467D
:1036A000FFF724FE2268136923F490431361226814
:1036B000536923F02A0353612268D36843F400530B
:1036C000D3600020E063202384F8393084F83A3056
:1036D00010BD80F8383000F07DFED8E7012070473B
:1036E0002DE9F04182B01E4690F83930DBB2202B34
:1036F00055D104460D469046002955D0002A55D094
:1037000090F83830012B53D0012380F83830002353
:10371000C363212380F83930FDF79CFD0746A4F8E8
:103720002480A4F8268010E000963B4600228021E9
:103730002046FFF775FF00283CD12B882268C3F391
:10374000080353602369C3B90235E38C9BB2B3B15C
:10375000E38C013B9BB2E384A368B3F5805FE3D0C5
:1037600000963B46002280212046FFF759FF18BBF8
:103770002A7823685A600135E7E70135E5E70096C6
:103780003B46002240212046FFF74AFF0346A8B9E6
:10379000202284F83920002284F8382000E0022317
:1037A000184602B0BDE8F0810123F9E70123F7E7ED
:1037B0000223F5E70323F3E70323F1E70323EFE70E
:1037C0002DE9F04182B01E4690F83A30DBB2202B52
:1037D0005AD104460D469046002959D0002A59D0A6
:1037E00090F83830012B57D0012380F8383000236F
:1037F000C363222380F83A30FDF72CFD0746A4F876
:103800002C80A4F82E801DE000963B46002220214B
:103810002046FFF705FF002840D1236933B923680C
:103820005B68C3F3080325F8023B0BE023685B6881
:10383000DBB225F8013B05E023685B6803F07F03FA
:103840002B700135E38D9BB2BBB1E38D013B9BB285
:10385000E385A368B3F5805FD6D000963B4600228F
:1038600020212046FFF7DCFED0B92369002BE3D1ED
:1038700023685B682B700135E4E7202384F83A3035
:10388000002084F8380000E0022002B0BDE8F0819A
:103890000120FAE70120F8E70220F6E70320F4E729
:1038A0000320F2E730B595B03422002107A802F0DA
:1038B00007FA00230293039304930593069300935E
:1038C0001C4A116C41F080511164126C02F080525C
:1038D0000092009A019318490A6822F4404242F487
:1038E00080420A600A6802F440420192019A02246E
:1038F000079401250A9510220B920D940E9308232C
:103900000F934023109311941294139407A8FEF779
:103910007BFD0F2302930394802304934FF4A05361
:1039200005934FF480530693294602A8FEF708FC3E
:1039300015B030BD003802400070004000B587B0BF
:10394000002300930B4B1A6B42F001021A631B6BAE
:1039500003F001030093009B2023019301230293B2
:1039600002220492039301A90348FDF767FF07B001
:103970005DF804FB003802400000024008B5202139
:103980000148FEF73FF808BD0000024010B586B0C0
:10399000002400940F4B1A6B42F004021A631B6B55
:1039A00003F004030093009B0B4B0293039406A9BE
:1039B0004FF4005341F8143D0848FDF73FFF2246FD
:1039C0000A212820FDF7D8FE2820FDF709FF06B0C0
:1039D00010BD00BF00380240000011100008024076
:1039E000014B00221A707047E4090020B0F5005F17
:1039F00000D0704708B520210148FEF703F808BD44
:103A00000000024008B54FF40050FDF7FFFF08BD6D
:103A100070B58CB000250195204C236B43F0040356
:103A20002363236B03F004030193019B0126079694
:103A300003230893099507A91948FDF7FFFE02958E
:103A4000636C43F480736364636C03F48073029368
:103A5000029B0395049505950695124C124B236025
:103A600065604FF00073A3602561A5612562E56282
:103A70000E4BA362E560E661256366612046FDF7B3
:103A80009BFC0A2303930496059503A92046FDF7A2
:103A900097FD2046FDF7BAFC0CB070BD003802401F
:103AA00000080240B04F0020002001400100000F3C
:103AB00008B564210748FDF725FD28B10548FDF745
:103AC000A5FC054B587808BD0248FDF776FD024B72
:103AD0005870F3E7B04F0020E409002010B5044609
:103AE000FFF7E6FF014B185510BD00BF041B002077
:103AF000014B185C704700BF041B002010B588B054
:103B0000194C1A4B23604FF4165363600023A360D3
:103B1000E3602361A3610C206061E3610193144AB7
:103B2000116B41F001011163116B01F00101019171
:103B300001990293116C41F400311164126C02F48A
:103B400000320292029A0390022204920593069395
:103B5000072307930DEB00010648FDF76FFE204693
:103B6000FFF78FFD08B010BD041F00200044004087
:103B7000003802400000024008B5FFF793FEFFF74F
:103B8000BDFFFFF7DBFEFFF701FF08BD00B583B007
:103B900002A901F8010D4FF6FF7301220248FFF759
:103BA0009FFD03B05DF804FB041F002000B583B047
:103BB000002302A901F8013D01220548FFF700FE9C
:103BC00020B99DF8070003B05DF804FB0020FAE778
:103BD000041F002030B589B0002401941C4B1A6CDE
:103BE00042F001021A641B6C03F001030193019B74
:103BF000049405940694079402940394154D4FF091
:103C000080432B605F236B60AC601023EB602C6102
:103C10002846FFF727FB4FF48053049304A9284656
:103C2000FFF77AF90294039402A92846FFF733FBC1
:103C30002846FFF717FB22460A211C20FDF79CFDB2
:103C40001C20FDF7CDFD2846FFF75AF909B030BD1D
:103C500000380240F84F002008B50248FFF733F95A
:103C600008BD00BFF84F00204FF47A5303FB00F06B
:103C7000002300E001338342FCDB704710B586B0BF
:103C8000002410E0A0B2FFF733FF07EE900AF8EE31
:103C9000677A9FED157A77EEC77A144B03EB8403AE
:103CA000C3ED007A0134B4F5806FEBDB104B1B6879
:103CB0000093104B104A152103A801F0ADFB00241E
:103CC0000CE00B4B1B6804FB03F189000B4A0A4410
:103CD0000648014403A801F0B1FB0134044B5B68C2
:103CE000A342EED806B010BD0000FE42B01F002077
:103CF00008000020E809002020A30008040B002091
:103D000010B588B0002310E05908254A02EB810263
:103D10001068244A02EB83010860591C89B202EB47
:103D200081020021116002339BB2B3F5006FEBD327
:103D3000012300224FF4806103A800F045FF194CD5
:103D4000214603A801F048FB4FF480621649204643
:103D500001F0D8FD00220FE0134B03EB8203D3EDFB
:103D6000007A9FED127A67EE877AFCEEE77A17EE1B
:103D7000903A0F498B540132682AEDDD002303E0AD
:103D80000B4A0021D1540133042BF9DD01AB02AA07
:103D90004FF48061044800F0AFFE08B010BD00BFD2
:103DA000040B0020B02F0020345000200000803B86
:103DB000441F002010B50446C0B2FFF7E7FE2046BE
:103DC00010BD08B5FFF7F2FE08BD0FB400B583B013
:103DD00004A951F8040B019101F0BCFF03B05DF898
:103DE00004EB04B0704700002DE9F0418AB00024D4
:103DF0000194334B1A6B42F080021A631A6B02F083
:103E000080020192019A02941A6B42F004021A6332
:103E10001A6B02F004020292029A03941A6B42F0A7
:103E200001021A631A6B02F001020392039A0494CE
:103E30001A6B42F002021A631B6B03F00203049335
:103E4000049B204E224621213046FDF7D5FD1E4F12
:103E5000224620213846FDF7CFFD4FF4005305934D
:103E60001A4B0693079405A91948FDF7E7FC0125AD
:103E7000059506950794089405A93046FDF7DEFCE4
:103E80004FF02008CDF8148006950794089505A9F1
:103E90003046FDF7D3FCCDF8148006950794032334
:103EA000089305A93846FDF7C9FC2246214628207B
:103EB000FDF762FC2820FDF793FC0AB0BDE8F08115
:103EC00000380240000002400004024000002110BF
:103ED0000008024008B50948094B0360094B4360DC
:103EE00000238360C3604FF48042026143618361B9
:103EF000C3610362FDF722FF08BD00BF54600020CC
:103F000000540040A086010008B50B480B4B03602D
:103F10004FF48273436000238360C3600361436195
:103F20004FF400728261C3610362436283620A23B9
:103F3000C362FEF7AAFC08BD6461002000300140A6
:103F400008B54378007840EA032007EE900AF8EEBF
:103F5000E77A17EE900AFCF7D7FA07A3D3E9002314
:103F6000FCF72AFB06A3D3E90023FCF76DF9FCF765
:103F700035FD00EE100A08BD7B14AE47E17A943F90
:103F800066666666661271402DE9F04186B01F4E86
:103F90004FF06408CDF808800227019705AC009423
:103FA00001230722A2213046FDF756FF2046FFF7E6
:103FB000C7FF174DFCEEC07A17EE903A2B70CDF884
:103FC00008800197009401230722A4213046FDF7C1
:103FD00043FF2046FFF7B4FFFCEEC07A17EE903A9D
:103FE0006B70CDF808800197009401230722A62169
:103FF0003046FDF731FF2046FFF7A2FFFCEEC07A06
:1040000017EE903AAB7006B0BDE8F0815460002026
:10401000F8610020002304E0084AD15C084AD1542A
:104020000133022BF8DD002305E0DA1C0549C85CEA
:10403000034988540133682BF7DD7047F86100208D
:10404000F8600020441F002010B582B0294B1B7877
:104050008BB1012B17D0022B17D0032B1BD0042BB5
:1040600021D0052B25D0062B36D02348FFF7ADFEF7
:10407000FFF7B6FC07E02148FFF7A7FEFFF7AAFD10
:104080001C4B01221A7002B010BDFFF7E5FD194B61
:1040900003221A70F7E7FFF7F1FDFFF731FE154B2A
:1040A00004221A70EFE7FFF76FFF124B05221A7018
:1040B000E9E7FFF7AFFF0F4B06221A701048FFF732
:1040C00084FE002405E00F4B195D0F48FFF77DFECD
:1040D00001346B2CF7DDD6E7642300930123222201
:1040E0000A49052000F021FC024B587000221A708A
:1040F000BBE700BFB80A00209CA300088CA30008FF
:1041000094A30008F860002098A300083460002001
:1041100008B5FDF779F8FFF72FFDFFF765FEFFF70C
:10412000D9FEFFF7F1FEFFF773FC1448144B036050
:10413000144B436000F03CFB134B55221A701722BE
:104140005A7022229A701022DA7034221A7189224F
:104150005A71A3229A715F22DA71082303E00A4A96
:104160000021D15401331F2BF9DDFFF76DFF4FF410
:10417000FA70FFF779FDFFF701FCF6E7A860002071
:1041800064610020FC6100203460002008B50368F1
:10419000B3F1804F00D008BD0A4B5888B0F5806F4E
:1041A0000AD2084B1B78022BF5D0FFF797FC054A83
:1041B000538801335380EEE702221A7000225A809E
:1041C000E9E700BFB80A002082B0002100910B4B44
:1041D0005A6C42F480425A645A6C02F48042009253
:1041E000009A01911A6C42F080521A641B6C03F021
:1041F00080530193019B02B0704700BF003802401A
:1042000000B589B0002303930493059306930793A5
:10421000026803F1804303F590339A4202D009B05B
:104220005DF804FB0021019103F58C335A6C42F4D4
:1042300080725A645A6C02F480720192019A02915F
:104240001A6B42F004021A631B6B03F0040302931F
:10425000029B012303930323049303A90148FDF761
:10426000EDFADCE70008024030B589B00023039383
:1042700004930593069307930268154B9A4201D065
:1042800009B030BD00250195124C236B43F00203A9
:104290002363236B03F002030193019B4FF44073EC
:1042A000039312230493012305930323069304230A
:1042B000079303A90848FDF7C1FA0295236C43F45C
:1042C00000132364236C03F400130293029BD7E7CB
:1042D000005400400038024000040240F0B589B0AC
:1042E00000230393049305930693079302681E4BE0
:1042F0009A4201D009B0F0BD0024009403F5843344
:104300005A6C42F480525A645A6C02F48052009201
:10431000009A01941A6B42F001021A631A6B02F0C0
:1043200001020192019A02941A6B42F002021A638E
:104330001B6B03F002030293029BC023039302272B
:104340000497032606960525079503A90748FDF758
:1043500075FA08230393049705940696079503A915
:104360000348FDF76BFAC5E700300140000002404A
:10437000000402400368B3F1804F00D0704700B5DD
:1043800083B00021019103F50E331A6C42F0010253
:104390001A641B6C03F001030193019B0A461C2065
:1043A000FDF7EAF91C20FDF71BFA03B05DF804FBEA
:1043B00008B50368B3F1804F00D008BD044A136C00
:1043C00023F0010313641C20FDF716FAF5E700BF84
:1043D0000038024000B589B000230393049305938D
:1043E000069307930268164B9A4202D009B05DF813
:1043F00004FB0021019103F5FA331A6C42F40032F8
:104400001A641A6C02F400320192019A02911A6B3A
:1044100042F001021A631B6B03F001030293029B3B
:104420000C23039302230493012305930323069390
:104430000723079303A90348FDF700FAD6E700BF57
:1044400000440040000002407047FEE7FEE7FEE740
:10445000FEE770477047704708B5FCF7EFFE08BDF0
:1044600008B50248FEF7E0FD08BD00BFF84F002088
:1044700008B5002220210248FDF7BEFA08BD00BFA2
:104480000004024008B5012220210248FDF7B4FAD9
:1044900008BD00BF0004024000B583B081238DF841
:1044A00004308DF80500FFF7E3FF064B186864231E
:1044B000022201A90068FEF728FAFFF7E3FF03B024
:1044C0005DF804FBC00A002030B583B005468623A2
:1044D0008DF80430C0F307438DF80530FFF7C8FFAF
:1044E000164C20686423022201A90068FEF70DFA29
:1044F000FFF7C8FF87238DF80430C5F307238DF835
:104500000530FFF7B5FF20686423022201A9006887
:10451000FEF7FBF9FFF7B6FF88238DF804308DF81E
:104520000550FFF7A5FF20686423022201A9006857
:10453000FEF7EBF9FFF7A6FF03B030BDC00A00207D
:1045400000B583B089238DF804308DF80500FFF79E
:104550008FFF064B18686423022201A90068FEF74A
:10456000D4F9FFF78FFF03B05DF804FBC00A002009
:1045700000B583B08B238DF804308DF80500FFF76C
:1045800077FF064B18686423022201A90068FEF732
:10459000BCF9FFF777FF03B05DF804FBC00A002009
:1045A00000B583B08D238DF804308DF80500FFF73A
:1045B0005FFF064B18686423022201A90068FEF71A
:1045C000A4F9FFF75FFF03B05DF804FBC00A002009
:1045D00000B583B08E238DF804308DF80500FFF709
:1045E00047FF064B18686423022201A90068FEF702
:1045F0008CF9FFF747FF03B05DF804FBC00A002009
:1046000000B583B091238DF804308DF80500FFF7D5
:104610002FFF064B18686423022201A90068FEF7E9
:1046200074F9FFF72FFF03B05DF804FBC00A002008
:1046300030B583B00D469D238DF804308DF805000C
:10464000FFF716FF0D4C20686423022201A90068C1
:10465000FEF75BF9FFF716FF9E238DF804308DF807
:104660000550FFF705FF20686423022201A90068B6
:10467000FEF74BF9FFF706FF03B030BDC00A00207C
:1046800000B583B0A2238DF804308DF80500FFF744
:10469000EFFE064B18686423022201A90068FEF7AA
:1046A00034F9FFF7EFFE03B05DF804FBC00A002009
:1046B00000B583B0A3238DF804308DF80500FFF713
:1046C000D7FE064B18686423022201A90068FEF792
:1046D0001CF9FFF7D7FE03B05DF804FBC00A002009
:1046E00000B583B0B9238DF804308DF80500FFF7CD
:1046F000BFFE064B18686423022201A90068FEF77A
:1047000004F9FFF7BFFE03B05DF804FBC00A002008
:1047100000B583B0C0238DF804308DF80500FFF795
:10472000A7FE064B18686423022201A90068FEF761
:10473000ECF8FFF7A7FE03B05DF804FBC00A002009
:1047400000B583B092238DF80430FF238DF8053037
:10475000FFF78EFE064B18686423022201A9006849
:10476000FEF7D3F8FFF78EFE03B05DF804FB00BF41
:10477000C00A002000B583B080238DF804308DF886
:104780000500FFF775FE064B18686423022201A995
:104790000068FEF7BAF8FFF775FE03B05DF804FB9A
:1047A000C00A002008B58020FFF776FE08BD000093
:1047B00008B5154B1860002201211448FDF71CF9BB
:1047C0000A20FCF74DFD2B20FFF7D2FE0020FFF75B
:1047D00063FEFFF7E7FF8120FFF75EFEC421222082
:1047E000FFF726FFFF20FFF763FF7020FFF748FF6A
:1047F0000748FFF769FE0220FFF7A2FEFFF7A0FFC0
:104800000020FFF7CDFE08BDC00A002000000240D6
:1048100014EEE30008B58120FFF73EFE08BD00005E
:1048200030B583B000238DF8073002AC122304F8B2
:10483000023DFFF71DFE0B4D28686423012221462F
:104840000068FEF762F82868642301220DF1070171
:104850000068FEF749FAFFF715FE9DF8070003B060
:1048600030BD00BFC00A002030B583B001248DF8F0
:10487000074000238DF80630FFF7FAFD0B4D28683E
:10488000642322460DF107010068FEF73EF8286810
:10489000642322460DF106010068FEF725FAFFF7B2
:1048A000F1FD9DF8060003B030BD00BFC00A002036
:1048B0000023072B14DC10B406E0400080B249004E
:1048C000C9B20133072B08DC81EA202414F0800FE1
:1048D000F3D0400080B25040F1E75DF8044B7047E0
:1048E00070472DE9F04107460D469046012A08D051
:1048F00041F22106B8F1010F06D041F60F50002415
:104900000AE048F20506F5E74FF6FF70F7E7324692
:10491000395DFFF7CDFF0134A542F8DCB8F1010F96
:1049200001D0C04380B2BDE8F081F8B504460D4621
:104930001646FFF799FF0746FFF76CFF3420FFF795
:10494000CFFEF020FFF7E4FEF720FFF759FEFFF758
:10495000F7FE0020FFF73CFE0020FFF721FE304667
:10496000FFF708FF2046FFF705FF002403E0285D5E
:10497000FFF700FF01346B2CF9DDB11E0122C9B233
:104980002846FFF7AEFF0446C0F30720FFF7F2FE0C
:10499000E0B2FFF7EFFE8320FFF77EFDFFF764FF35
:1049A000FFF73EFF044605E0FFF73AFF04460A2002
:1049B000FCF756FC14F0080FF6D0FFF7F3FE38466C
:1049C000FFF76AFDFFF7BCFE0020F8BD70B50D468D
:1049D0001646002404E0FFF7F4F92870013401358D
:1049E000B442F8DB304670BD70B51646002405E0D1
:1049F0004D1C0878FFF7DEF901342946B442F7DB95
:104A0000304670BD08B503460B4A126842B10A4AE7
:104A1000106803446A46934206D8074A136008BDEB
:104A2000054A06491160F2E701F020F90C23036002
:104A30004FF0FF30F3E700BFC40A002048620020B7
:104A40004FF0FF3070474FF400534B600020704729
:104A500001207047002070470F49D1F8883043F497
:104A60007003C1F888300D4B1A6842F001021A60D9
:104A7000002098601A6822F0847222F480321A6052
:104A8000074A5A601A6822F480221A60D8604FF0F0
:104A900000638B60704700BF00ED00E0003802400B
:104AA00010300024DFF834D0002103E00C4B5B58B9
:104AB000435004310B480C4B42189A42F6D30B4A30
:104AC00002E0002342F8043B094B9A42F9D3FFF776
:104AD000C3FF01F0D1F8FFF71BFB70470000022075
:104AE000542E010800000020C8090020C809002039
:104AF00044620020FEE700002DE9F0414F1E5FEA0E
:104B0000970800F1040ED0ED007A58D01430C44656
:104B10000426002410ED046A50ED036A10ED027AB9
:104B200050ED015AB4EEE76AF1EE10FAC8BFF0EEAC
:104B3000467AA6F10305F4EEE67AC8BF2C46F1EEFC
:104B400010FA48BFF0EE667AA6F10205F4EEC77AD5
:104B500048BF2C46F1EE10FA48BFF0EE477A06F156
:104B6000FF35F4EEE57A48BF2C46F1EE10FA48BF67
:104B7000344648BFF0EE657ABCF1010C06F104063C
:104B800000F11000C6D10EEB081E17F0030018D07C
:104B9000081ABEEC017AB4EEE77AF1EE10FAC8BF5B
:104BA000044600F10100D8BFB0EE677A8842F0EE0B
:104BB000477AEED182ED007A1C60BDE8F081444670
:104BC000E3E7B0EE677AF5E710B4B1F5807F2B4CE0
:104BD0008270C3700180446043D00FD8102932D056
:104BE00040291ED14FF07252254B8181C181026153
:104BF0008360002040B25DF8044B7047B1F5806FD0
:104C000014D0B1F5805F0CD14FF0665303611D4A9B
:104C1000826001238381C381002040B25DF8044B90
:104C20007047FF2040B25DF8044B70474FF06A5365
:104C30000361154A826004238381C381002040B24E
:104C40005DF8044B70474FF0765303610F4A826062
:104C50004FF480738381C381002040B25DF8044B20
:104C600070474FF06E530361094A826010238381BD
:104C7000C381002040B25DF8044B7047ACAB000824
:104C80002AA40008ACA30008B2A30008AAA5000843
:104C9000CAA300082DE9F04F2DED068B8A4689083E
:104CA0008DB04FEAC10C00EB0C040D461F46914637
:104CB0000A9204EB0C020646009307EB470E05EB45
:104CC0004503A2EBC50709900CF10400019703917D
:104CD0003044314606EBC303371D009EAB46F5005A
:104CE0000295CDF810B0DDF808B0CDF808A0DDF8D9
:104CF00004A04FEA06184FEACE0E4E464D46D1EDBF
:104D0000014A10ED014A17ED016AD2ED006A94EDF7
:104D1000017AD3ED017A93ED005AD2ED015A99ED63
:104D2000003AD9ED013A36EE262A74EE052A34EE21
:104D3000A51A77EE271A32EE220A71EE210A36EE14
:104D4000666A34EE455A74EEE55A37EE677A07ED37
:104D5000010AC1ED010A95ED004AD6ED006AD6EDD3
:104D6000017A72EE624A71EE611A75EEC52A95ED0E
:104D7000011A36EE072A36EE477A35EE256A62EEDC
:104D8000040A21EE835A22EE012A22EE844A22EE00
:104D9000811A67EE265A64EE832A66EE266A64EE6E
:104DA000A34A26EE276A61EEA31A67EE277A30EE51
:104DB000813A34EE424A72EEA13A35EE645A35EE4B
:104DC000867A76EEE77A0831514540ED013A07F1EF
:104DD000080784ED015AC14482ED003A82ED014A90
:104DE0005D4483ED007AC3ED017A764400F108005A
:104DF00004F1080402F1080203F108037FF47FAF15
:104E0000009BBDF80C20DDF810B0DDF808A00B9277
:104E10009B009BB2042A069340F2B9800792069841
:104E20000A9F099E4FEA9B031946089300EB400333
:104E30004A1EDB00059203930A01030104920293C8
:104E4000C200002306EBC1090192B846BE4600939A
:104E5000049B97ED001AD7ED011A9EED002ADEEDB6
:104E6000012A98ED003AD8ED013A009DF11809EBBE
:104E70000302341D4B46304690ED014A54ED015A71
:104E800091ED007AD2ED007AD3ED014A92ED015A0C
:104E900093ED006AD1ED016A35EE870A34EE268A79
:104EA00076EE278A74EE666A36EE676A75EEC75A42
:104EB00074EEC57A74EE850A35EEE77A78EE604ACC
:104EC00035EEA75A30EE684A76EEC65A76EE267A66
:104ED00064EE02AA24EEA2AA24EE224A65EE019A0A
:104EE00025EEA19A27EE036A67EEA36A64EE824A72
:104EF00025EE215A65EE815A27EE237A67EE837AF2
:104F000078EE200A74EEC44A30EE280A3AEE8A8A15
:104F100039EE894A75EEC55A76EE266A77EEC77A7B
:104F20005D44AA4504ED010AC0ED010A644483ED25
:104F3000008AC3ED014A604481ED004AC1ED015A87
:104F40006344C2ED006AC2ED017A6144624493D8C1
:104F5000019A009B1744029A9644039A9044059A3A
:104F600001339342009306F1080609F108097FF620
:104F70006FAF069B079ADDF820B092089B009BB2AA
:104F8000042A0792069302D94FEACB0C47E7099B04
:104F90000B9A203353ED044A13ED066A13ED055ABC
:104FA00053ED015A53ED076A13ED084A13ED027AE7
:104FB00053ED037A34EE243A76EE073A34EE644A3F
:104FC00036EE477A75EE654A35EE256A76EEA75AD3
:104FD00076EEE77A73EE232A35EE865A73EE633A5D
:104FE00077EEC76A34EE243A35EEC66A74EE644A48
:104FF00077EE277A013A43ED082A43ED063A03EDAE
:10500000043A43ED024A03ED075A03ED056A43ED06
:10501000036A43ED017A03F12003BBD10DB0BDEC6F
:10502000068BBDE8F08F00BF2DE9F04F2DED088B0A
:105030008DB08A4600938908009C03910D4600EBD1
:1050400001111F46AB464FEAC50CA1EBC50805EBA5
:1050500045032501E400029401950646914607EBBD
:10506000470E0990CDF810B00CF10400DDF808B03F
:10507000CDF808A0DDF804A00A923044324606EBD1
:10508000C30347464FEACE0E04364D464C46D2ED9A
:10509000014A10ED014A16ED016AD1ED006A97ED63
:1050A000017AD3ED017AD3ED005A91ED015A99EDD1
:1050B000003AD9ED013A36EE262A74EE252A34EE6E
:1050C000851A77EE271A32EE228A71EE210A36EE21
:1050D000666A74EE655A34EEC55A37EE677A06EDA5
:1050E000018AC2ED010A94ED004AD5ED006AD5EDC2
:1050F000017A72EE624A71EE611A75EE252A94ED1C
:10510000011A36EE472A36EE077A35EE656A62EE08
:10511000040A21EE835A22EE012A22EE844A22EE6C
:10512000811A67EE265A64EE832A66EE266A64EEDA
:10513000A34A26EE276A61EEA31A67EE277A30EEBD
:10514000C13A34EE024A72EEE13A35EE245A35EEB7
:10515000C67A76EEA77A0832424540ED013A06F16A
:10516000080687ED015AD14481ED003A81ED014AEC
:105170005C4483ED007AC3ED017A754400F10800C8
:1051800007F1080701F1080103F108037FF47FAF7D
:10519000009BBDF80C20DDF810B0DDF808A00B92E4
:1051A0009B009BB2042A069340F2B98007920698AE
:1051B0000A9F099E4FEA9B031946089300EB4003A0
:1051C0004A1EDB00059203930A0103010492029335
:1051D000C200002306EBC1090192B846BE46009307
:1051E000049B97ED001AD7ED011A9EED002ADEED23
:1051F000012A98ED003AD8ED013A009DF11809EB2B
:105200000302341D4B46304690ED014A14ED016A0D
:1052100091ED007AD2ED007A93ED015AD1ED014A79
:10522000D2ED015AD3ED006A76EE070A36EEA78A70
:1052300036EE476A76EEE76A74EE248A74EE647A94
:1052400035EE657A35EE254A70EEC84A76EE475A55
:1052500038EEC45A36EE077A37EEA66A77EEE67A6B
:1052600024EE82BA65EE22AA64EEA24A25EE81AA55
:1052700066EE219A27EE039A67EEA36A25EE025A9C
:1052800065EEA15A26EE016A27EE237A67EE837A4D
:1052900070EE880A35EE245A38EE844A3BEE6A8A6C
:1052A0007AEE694A36EE256A79EE666A77EE877A93
:1052B0005D44AA4544ED010A80ED014A644483ED52
:1052C000008A83ED015A6044C1ED004A81ED016A14
:1052D0006344C2ED006AC2ED017A6144624493D82E
:1052E000019A009B1744029A9644039A9044059AA7
:1052F00001339342009306F1080609F108097FF68D
:105300006FAF069B079ADDF820B092089B009BB216
:10531000042A0792069302D94FEACB0C47E7099B70
:105320000B9A203353ED044A13ED066A13ED055A28
:1053300053ED015A53ED076A13ED084A53ED027A13
:1053400013ED037A34EE243A76EE273A34EE644ACB
:1053500076EE677A75EE654A35EE256A76EE875AFF
:1053600036EEC77A73EE232A74EE246A37EE275A94
:1053700073EE633A77EE677A34EE643A75EE864AF6
:1053800035EEC66A62EE802A26EE007A63EE805A17
:1053900023EE004A66EE806A64EE804A25EE006ADB
:1053A00067EE807A013A43ED082A43ED065A03ED91
:1053B000044A43ED026A43ED074A03ED057A03ED23
:1053C000036A43ED017A03F12003ABD10DB0BDECCC
:1053D000088BBDE8F08F00BF70B583780446012BC1
:1053E0000D46084662682188A38905D0FFF752FC64
:1053F000E378012B07D070BD94ED040AFFF714FE8B
:10540000E378012BF7D128462188E289A368BDE81B
:10541000704000F05FBB00BF70B5049C826004F177
:105420008044013C05460C4401801E46A2001846FB
:10543000002100F045FC6E6070BD00BF2DE9F04F0B
:105440002DED108B89B0054603900088D5F804C077
:1054500004931E4600F18043013B0CEB8304F308E8
:10546000D5F80880019025460094029300F0EE8163
:105470004FEAD0099E464FEA49131E1F044605967F
:1054800008EB030004F0070A13460CF12004CDF8E2
:1054900018C084464846DDF81490079105F12007AE
:1054A00001F1200602F1200552469A4656F8203CAA
:1054B00047F8203C56F81C3C47F81C3C56F8183C72
:1054C00047F8183C56F8143C47F8143C56F8103C82
:1054D00047F8103C56F80C3C47F80C3C56F8083C92
:1054E00047F8083CDFEDF13A56F8043C47F8043C35
:1054F00014ED083A54ED072A14ED062A54ED051A66
:1055000014ED041A54ED030A14ED020A211FF0EE03
:10551000638AF0EE639AF0EE63AAF0EE63BAB0EE3F
:1055200063CAF0EE63CAB0EE63DA002800F0E881E7
:1055300008F1200104F11C03834613ED088A11EDE4
:10554000084A51ED074A11ED065A51ED055A11ED81
:10555000046A51ED036A11ED027A51ED017A23EEEE
:1055600004FA62EE84EA13ED073A22EE04EA61EEF1
:1055700084DA21EE04BA20EE84AA20EE049A28EE02
:10558000044A62EE24FA3CEE0ECA7BEEADBA21EE7E
:10559000A4EA61EE24DA7AEE8BAA79EE8A9A20EEFA
:1055A000A4BA20EE24AA3DEE0FDA7CEEAECA22EEBB
:1055B000A4FA78EE898A53ED062A28EE249A73EE2F
:1055C000843A63EE244A22EE054A61EE05EA13EDC1
:1055D000052A3DEE0FDA7CEEAFCA20EE85FA61EEC9
:1055E00085FA3CEE0EEA7BEEADDA3AEE8BBA60EE6F
:1055F00005BA68EE05AA39EE8AAA78EE898A73EEB2
:10560000A43A63EE054A22EE855A21EE259A20EE51
:1056100025CA3DEE04DA7CEEAFCA21EEA54A3EEE85
:105620002EEA53ED041A60EEA5EA7DEE8FDA3BEE2A
:105630002BBA3AEE2AAA68EE25BA63EE25AA78EECE
:10564000A48A73EE853A22EEA55A62EE255A61EEDF
:10565000064A60EE869A60EE06FA13ED031A23EE10
:1056600006FA3DEE04DA7CEE89CA3EEE2EEA28EE1A
:10567000069A7DEE8CDA3BEE2BBA22EE86CA3AEE23
:105680002AAA78EE858A73EEA53A62EE065A21EED2
:10569000866A20EE264A63EE26EA3AEE0CAA22EE4D
:1056A000265A3DEE24DA7CEEA9CA60EEA64A3EEE0A
:1056B0002FEA53ED020A68EE26FA7DEE89DA3BEE18
:1056C0000FBA78EEA58A22EEA6FA73EE863A21EE9C
:1056D000A66A61EE266A60EE07AA28EE07CA63EEA4
:1056E00007BA7AEE059A78EE868A3DEE24DA7CEEE9
:1056F00084CA7DEEAEDA22EE079A62EE87EA61EEA8
:10570000875A73EEA63A13ED010A61EE076A3EEE80
:105710002FEA3BEE0FBA20EE877A68EE274A3DEE7D
:105720002ADA7CEE8CCA23EE278A3EEE2BEA22EEA2
:10573000A74A22EE27AA21EEA75A21EE276A78EE81
:10574000A66A7DEEAEDA60EEA78A3BEE09BA79EE84
:10575000A59A73EE873A60EE277ABBF1010B01F14F
:1057600020013DEE24DA7CEE88CA3EEE04CA7DEECE
:105770008ABA7BEE05AA79EE869A76EEA88A73EE4F
:10578000A73A03F120037FF4D8AE09EB0401E34606
:10579000A2B31346BBEC016AF1EC017A23EE063AA0
:1057A00022EE864A62EE064A21EE865A61EE065ADB
:1057B00060EE866A20EE067A27EE866A013B3DEEB1
:1057C00003DA7CEE84CAB0EE623A3CEE24CAF0EE14
:1057D000422A7BEE85BAB0EE612A7AEEA5AAF0EEF7
:1057E000411A79EEA69AB0EE601A78EE878AF0EE4A
:1057F000400A73EE863AB0EE670ACBD1BEF1010ED5
:1058000005ED08DA45ED07CA05ED06CA45ED05BA0E
:1058100045ED04AA45ED039A45ED028A45ED013AAE
:1058200007F1200706F1200604F1200405F1200508
:105830007FF43CAE029B0098DDF818C007995B012D
:1058400052461844009019449C441A44049B13F097
:10585000070E1FD0009FDDF804907646654651F88C
:10586000043BDFED126A47F8043B44464B462846AA
:10587000B0EC017AF4EC017A67EE277A013B76EE20
:10588000A76AF5D1013EE2EC016A05F10405E6D113
:105890000CEB8E0C019B591E039B8E085C6820D07C
:1058A00004F110020CF11003304601E0000000008A
:1058B00053F8105C42F8105C53F80C5C42F80C5C36
:1058C00053F8085C42F8085C53F8045C42F8045C46
:1058D000013803F1100302F11002E9D133011C4435
:1058E0009C4411F0030306D022465CF8041B42F8E6
:1058F000041B013BF9D109B0BDEC108BBDE8F08F62
:10590000C34645E72DE9F0415FEA920884B07FD0B5
:10591000002700F1200401F1100546465AE0B1EEDF
:10592000E70AB4EE400AF1EE10FA40F0A48005ED6B
:10593000040A54ED067A14ED050A67EEA77A20EE04
:10594000000A77EE807AF5EEC07AF1EE10FAC0F236
:105950008F80B1EEE70AB4EE400AF1EE10FA40F0A3
:10596000AF8005ED030A54ED047A14ED030A67EEE7
:10597000A77A20EE000A77EE807AF5EEC07AF1EE93
:1059800010FA72DBB1EEE70AB4EE400AF1EE10FA5B
:1059900040F08C8005ED020A54ED027A14ED010A04
:1059A00067EEA77A20EE000A77EE807AF5EEC07AED
:1059B000F1EE10FA20DBB1EEE70AB4EE400AF1EEA8
:1059C00010FA69D1013E05ED010A04F1200405F148
:1059D000100519D054ED087A14ED070A67EEA77A7E
:1059E00020EE000A77EE807AF5EEC07AF1EE10FA3A
:1059F00095DA45F8107C9CE7013E45F8047C04F1FB
:105A0000200405F11005E5D100EB481001EB081169
:105A100012F0030526D0002600F108040CE0B1EED8
:105A2000E70AB4EE400AF1EE10FA2ED1013D01ED85
:105A3000010A04F1080415D054ED027A14ED010AAC
:105A400067EEA77A20EE000A043177EE807AF5EE51
:105A5000C07AF1EE10FAE2DA013D41F8046C04F18B
:105A60000804E9D104B0BDE8F08145F8087C93E76B
:105A700045F80C7C77E7B0EE670A0392029101903B
:105A800000F098F801A807C851E7B0EE670A019145
:105A900000F090F80199C9E7B0EE670A039202910D
:105AA000019000F087F801A807C88BE7B0EE670AFD
:105AB00003920291019000F07DF801A807C869E700
:105AC000B0EE670A03920291019000F073F801A80A
:105AD00007C846E72DE9F04F85B049085200002479
:105AE00003928A1E019101F1010C02922146224685
:105AF000019D01312A44C900D2004618851804319D
:105B000004323768D5F800E0C6F800E001440244EA
